:100000000C94F6010C941E020C941E020C941E0219
:100010000C941E020C941E020C941E020C941E02E0
:100020000C941E020C941E020C941E020C941E02D0
:100030000C941E020C941E020C941E020C941E02C0
:100040000C948E070C941E020C94FE070C94D80797
:100050000C941E020C941E020C941E020C941E02A0
:100060000C941E020C941E024E414E494E495459A6
:10007000494E46CDCCCC3D0AD7233C17B7D1387773
:10008000CC2B329595E6241FB14F0A000020410089
:1000900000C84200401C4620BCBE4CCA1B0E5AAED3
:1000A000C59D744641554C54004553544F505045DE
:1000B000440041424F525445440050415553454439
:1000C0000052455455524E494E475F544F5F5A4572
:1000D000524F0052554E4E494E470041524D4544F5
:1000E0000053455455500049444C4500574149542C
:1000F000494E475F464F525F50495F434F4E464916
:100100004700424F4F540054454C2C005445535423
:100110005F434F4D504C455445004556454E542C79
:100120004641554C542C004F5645524C4F414400CB
:100130004553544F5050454400535445505F535419
:10014000415254454400544553545F535441525412
:10015000454400544152455F4150504C494544008C
:100160004D4554484F445F41524D454400494E5619
:10017000414C49445F434F4D4D414E44005245531D
:1001800045545F4641554C54004553544F505F53BE
:1001900054494C4C5F41435449564500494E5641E1
:1001A0004C49445F5354415445005A45524F5F4CAB
:1001B0004F414400494E56414C49445F53544154C9
:1001C0004500455849545F534554555000494E56D3
:1001D000414C49445F535441544500454E544552A7
:1001E0005F534554555000494E56414C49445F5366
:1001F000544154450041424F525400494E56414CDF
:1002000049445F53544154450052455455524E5F42
:100210005A45524F00494E56414C49445F53544150
:10022000544500524553554D4500494E56414C49A1
:10023000445F535441544500504155534500494E85
:1002400056414C49445F53544154450043414E4349
:10025000454C5F41524D00494E56414C49445F5315
:100260005441544500535445505F535441525445F2
:100270004400544553545F53544152544544005331
:100280005441525400494E56414C49445F535441E5
:100290005445004D4554484F445F53544550004920
:1002A0004E56414C49445F4D4554484F445F53546A
:1002B0004550004C4F41445F4D4554484F44004920
:1002C0004E56414C49445F4D4554484F44004C4FB5
:1002D00041445F434F4E46494700494E56414C49C1
:1002E000445F434F4E4649470050494E4700434FF5
:1002F0004E4649475F524551554952454400494E83
:1003000056414C49445F434F4D4D414E4400534587
:100310005249414C5F4C494E455F544F4F5F4C4FE3
:100320004E470000000000240027002A00000000C3
:1003300000250028002B00000000002300260029D3
:10034000000404040404040404020202020202037E
:100350000303030303010204081020408001020488
:10036000081020010204081020000000080002010B
:100370000000030407000000000000000041524D8F
:100380005F43414E43454C4C454400535445505FF8
:100390005354415254454400535445505F434F4DCC
:1003A000504C45544544004556454E542C0041425E
:1003B0004F525445440052455455524E5F5A45528F
:1003C0004F5F53544152544544004556454E542CBA
:1003D000004552522C0041434B2C004641554C5491
:1003E000005354415455532C0000300811241FBEB3
:1003F000CFEFD8E0DEBFCDBF24E0A4EFB1E001C075
:100400001D92A43EB207E1F711E0A0E0B1E0E8EBF5
:10041000FCE302C005900D92A43FB107D9F711E0AB
:10042000C6EFD1E004C02197FE010E940E1CC53F1B
:10043000D107C9F70E94160A0C945A1E0C940000AA
:10044000833081F028F4813099F08230A9F008954A
:100450008730A9F08830C9F08430B1F480918000F1
:100460008F7D03C0809180008F77809380000895F6
:1004700084B58F7784BD089584B58F7DFBCF80913F
:10048000B0008F778093B00008958091B0008F7D89
:10049000F9CFCF93DF93282F30E0F901E759FC4FD4
:1004A0008491F901EB5AFC4FD491F901EF5BFC4FB9
:1004B000C491CC23A1F081110E942002EC2FF0E026
:1004C000EE0FFF1FE95CFC4FA591B491EC91ED2379
:1004D00081E090E009F480E0DF91CF91089580E021
:1004E00090E0FACF1F93CF93DF93282F30E0F901EC
:1004F000E759FC4F8491F901EB5AFC4FD491F90173
:10050000EF5BFC4FC491CC23A9F0162F81110E9400
:100510002002EC2FF0E0EE0FFF1FE35DFC4FA591F2
:10052000B4918FB7F894EC91111108C0D095DE23E7
:10053000DC938FBFDF91CF911F910895DE2BF8CF11
:10054000CF93C82F8093B40361E068278091B303F1
:100550000E947202C11118C01092BE031092BF0314
:100560001092C0031092C1031092C2031092C303F1
:100570001092C4031092C5031092B60360E08091FC
:10058000B103CF910C947202CF910895CF93DF9372
:1005900090E0FC01EB5AFC4F24918F5B9C4FFC01D7
:1005A00084918823C9F090E0880F991FFC01ED5DCC
:1005B000FC4FA591B491FC01E35DFC4FC591D49132
:1005C00061110DC09FB7F8948C91209582238C9374
:1005D0008881282328839FBFDF91CF9108956230BF
:1005E00051F49FB7F8943C91822F809583238C938C
:1005F000E8812E2BEFCF8FB7F894EC912E2B2C9314
:100600008FBFEACF3FB7F8948091F9019091FA013A
:10061000A091FB01B091FC0126B5A89B05C02F3F1E
:1006200019F00196A11DB11D3FBFBA2FA92F982F18
:100630008827BC01CD01620F711D811D911D42E013
:10064000660F771F881F991F4A95D1F70895AF92BB
:10065000BF92CF92DF92EF92FF920F931F93CF93AF
:10066000DF936C017B018B01040F151FEB015E0111
:10067000AE18BF08C017D10759F06991D601ED91A6
:10068000FC910190F081E02DC6010995892B79F745
:10069000C501DF91CF911F910F91FF90EF90DF90F7
:1006A000CF90BF90AF900895FC01538D448D252FBE
:1006B00030E0842F90E0821B930B541710F0CF96FC
:1006C000089501970895FC01918D828D981761F02E
:1006D000A28DAE0FBF2FB11D5D968C91928D9F5F45
:1006E0009F73928F90E008958FEF9FEF0895FC0124
:1006F000918D828D981731F0828DE80FF11D858DD7
:1007000090E008958FEF9FEF0895FC01918D228D69
:10071000892F90E0805C9F4F821B91098F739927EE
:1007200008958DEF91E00E94850321E0892B09F463
:1007300020E0822F089580E090E0892B29F00E942C
:10074000910381110C9400000895FC01A48DA80F61
:10075000B92FB11DA35ABF4F2C91848D90E0019603
:100760008F739927848FA689B7892C93A089B18923
:100770008C91837080648C93938D848D981306C0C4
:100780000288F389E02D80818F7D80830895EF9228
:10079000FF920F931F93CF93DF93EC0181E0888F3B
:1007A0009B8D8C8D98131AC0E889F989808185FF0B
:1007B00015C09FB7F894EE89FF896083E889F989AD
:1007C00080818370806480839FBF81E090E0DF91AF
:1007D000CF911F910F91FF90EF900895F62E0B8D02
:1007E00010E00F5F1F4F0F731127E02E8C8D8E11BD
:1007F0000CC00FB607FCFACFE889F989808185FF24
:10080000F5CFCE010E94A503F1CFEB8DEC0FFD2FAC
:10081000F11DE35AFF4FF0829FB7F8940B8FEA89DE
:10082000FB8980818062CFCF0F931F93CF93DF939B
:100830008C01D0E0C0E0F801EC0FFD1F649166234D
:1008400041F08DEF91E00E94C703892B11F02196B2
:10085000F2CFCE01DF91CF911F910F910895682FB4
:100860008DEF91E00C94C703CF93DF93EC01888D5B
:100870008823B9F0AA89BB89E889F9898C9185FD1B
:1008800003C0808186FD0DC00FB607FCF7CF8C91A9
:1008900085FFF2CF808185FFEDCFCE010E94A503B9
:1008A000E9CFDF91CF9108950895FF920F931F93A1
:1008B000CF93DF93F82E062FC7E0D0E010E061E081
:1008C000802F0E9472028F2D0E9449020C2E01C0BF
:1008D000880F0A94EAF7182B60E0802F0E947202BA
:1008E000219768F7812FDF91CF911F910F91FF9092
:1008F0000895FC0101900020E9F73197AF01481BF2
:10090000590BBC018DEF91E00C942703CF93DF933B
:100910000E941404EC018AE391E00E9479048C0F98
:100920009D1FDF91CF910895CF93DF93EC0186ED6A
:1009300093E00E941404CE01DF91CF910C948604C1
:10094000CF93DF93EC0181ED93E00E941404CE017C
:10095000DF91CF910C948604CF93DF93EC018AEC66
:1009600093E00E941404CE01DF91CF910C94860491
:1009700086E0809396031092A8031092A903109228
:10098000AA031092AB031092AC031092AD03109225
:10099000AE031092AF031092B00386EB93E00C9479
:1009A000AC0488E0809396031092BE031092BF03BC
:1009B0001092C0031092C1038EEA93E00C94AC0431
:1009C0008F929F92AF92BF920F931F93CF93DF931B
:1009D000CDB7DEB7A1970FB6F894DEBF0FBECDBF7F
:1009E00019A2423008F44AE08E010F5D1F4F842E99
:1009F000912CB12CA12CA50194010E949B1BE62FE8
:100A0000B901CA01EA30F4F4E05DD801EE938D013A
:100A1000232B242B252B79F790E080E0109719F0F9
:100A2000CD010E947904A1960FB6F894DEBF0FBEE7
:100A3000CDBFDF91CF911F910F91BF90AF909F904D
:100A40008F900895E95CE1CF4F925F926F927F9211
:100A50008F929F92AF92BF92CF92DF92EF92FF92CE
:100A60000F931F93CF936B017C01742EAC019B01FC
:100A70000E94271D882399F08DE391E0CF911F916B
:100A80000F91FF90EF90DF90CF90BF90AF909F902D
:100A90008F907F906F905F904F900C9479044601F7
:100AA0005701E894B7F82FEF3FEF4FE75FE7C50135
:100AB000B4010E94271D81110DC02FEF3FEF4FE7BA
:100AC0005FE7C501B4010E94671A18161CF481E49F
:100AD00091E0D4CF2FEF3FEF4FE75FE4C701B601BE
:100AE0000E94221D18161CF485E491E0C7CF2FEF59
:100AF0003FEF4FE75FECC701B6010E94671A87FD21
:100B0000F3CF20E030E0A901C701B6010E94671AC7
:100B100010E000E087FF08C08DE20E942F048C01E6
:100B2000F7FAF094F7F8F094C0E060E070E080E04D
:100B30009FE37C1641F020E030E040E251E40E9467
:100B4000811CCF5FF6CFA70196010E94151C2B01D7
:100B50003C010E94F31C4B015C014AE00E94E0044E
:100B60007C01E00EF11ECC23B1F1C501B4010E945D
:100B70006C1A9B01AC01C301B2010E94141C4B0111
:100B80005C018EE20E942F04E80EF91EC15018F19C
:100B900020E030E040E251E4C501B4010E94CD1AEA
:100BA0002B013C010E94F31C4B01B12CA12C4AE00B
:100BB000C501B4010E94E004E80EF91EC501B401AC
:100BC0000E946C1A9B01AC01C301B2010E94141C6B
:100BD0004B015C01DBCFC701CF911F910F91FF90BB
:100BE000EF90DF90CF90BF90AF909F908F907F90CD
:100BF0006F905F904F900895CF92DF92EF92FF92A7
:100C000081EE93E00E941404E09196038BED93E053
:100C1000EB3038F4F0E0EE0FFF1FE65FFE4F80810F
:100C200091810E9414048CE20E942F0460910804B8
:100C300070E090E080E04AE00E94E0048CE20E94D4
:100C40002F046091150470911604809117049091FF
:100C5000180444E00E9424058CE20E942F04609155
:100C6000110470911204809113049091140444E0D3
:100C70000E9424058CE20E942F046091C2037091AF
:100C8000C3038091C4039091C50344E00E942405EE
:100C90008CE20E942F046091C6037091C70380917B
:100CA000C8039091C9030E946E1A6B017C01609188
:100CB000B8037091B90390E080E00E946C1A29E9B2
:100CC00039E040E755E40E94CD1A20E030E040E8EA
:100CD0005EE30E94CD1A9B01AC01C701B6010E94E0
:100CE000811C45E00E9424058AE391E0FF90EF908B
:100CF000DF90CF900C94790410920A0410920B04A8
:100D000010920C0410920D0410920E0410920F0415
:100D100010921004109209041092110410921204FF
:100D200010921304109214041092A8031092A903B5
:100D30001092AA031092AB031092AC031092AD0371
:100D40001092AE031092AF031092B00382E0809332
:100D500096031092BE031092BF031092C00310922C
:100D6000C1038DE793E00E94AC040C94FC05109243
:100D70000A0410920B0410920C0410920D041092AD
:100D80000E0410920F041092100410920904109295
:100D9000190410921A0410921B0410921C04109251
:100DA0001104109212041092130410921404109261
:100DB000A8031092A9031092AA031092AB031092F9
:100DC000AC031092AD031092AE031092AF031092D9
:100DD000B00382E08093960381E00E94A00210920B
:100DE000BE031092BF031092C0031092C1030C9473
:100DF000FC050F931F93CF938C01C62F87EA93E0D6
:100E00000E941404C8010E9414048CE20E942F0462
:100E10006C2F70E090E080E04AE00E94E0048AE3FA
:100E200091E0CF911F910F910C947904CF92DF92B2
:100E3000EF92FF926B017C0160910C046F5F88E977
:100E400093E00E94F90660910C0481E0860F809384
:100E50000C04C0920D04D0920E04E0920F04F092A4
:100E6000100490910B04891730F0FF90EF90DF9001
:100E7000CF900C94B8046E5F8BE893E0FF90EF90F6
:100E8000DF90CF900C94F906CF93DF93EB01AC0188
:100E900069E471E090E080E00E94D518009721F0AD
:100EA000DF91CF910C94C818188260E070E0CB01FC
:100EB000DF91CF910895EF92FF920F931F93CF93FD
:100EC000DF9300D0CDB7DEB77B01AC0169E471E000
:100ED00090E080E00E94D5188C01009771F4F70132
:100EE000108260E070E0CB010F900F90DF91CF9106
:100EF0001F910F91FF90EF9008951A8219824AE096
:100F000050E0BE016F5F7F4F0E94B11729813A8187
:100F10000217130749F7E3CF0C94C81D1F920F92D5
:100F20000FB60F9211242F933F938F939F93AF93FC
:100F3000BF938091F5019091F601A091F701B091D6
:100F4000F8013091F40123E0230F2D3758F5019675
:100F5000A11DB11D2093F4018093F5019093F6013A
:100F6000A093F701B093F8018091F9019091FA01F3
:100F7000A091FB01B091FC010196A11DB11D8093D0
:100F8000F9019093FA01A093FB01B093FC01BF918A
:100F9000AF919F918F913F912F910F900FBE0F9026
:100FA0001F90189526E8230F0296A11DB11DD2CFE0
:100FB0001F920F920FB60F9211242F933F934F93CE
:100FC0005F936F937F938F939F93AF93BF93EF93B1
:100FD000FF938DEF91E00E94A503FF91EF91BF91E8
:100FE000AF919F918F917F916F915F914F913F91C1
:100FF0002F910F900FBE0F901F9018951F920F9278
:101000000FB60F9211242F938F939F93EF93FF931B
:10101000E0910D02F0910E028081E0911302F091B7
:10102000140282FD1BC09081809116028F5F8F7326
:1010300020911702821741F0E0911602F0E0E35090
:10104000FE4F958F80931602FF91EF919F918F91A4
:101050002F910F900FBE0F901F9018958081F4CFA5
:101060004F925F926F927F928F929F92AF92BF92B8
:10107000CF92DF92EF92FF920F931F93CF93DF9364
:10108000EDEFF1E01382128288EE93E0A0E0B0E091
:1010900084839583A683B78384E291E091838083E0
:1010A00085EC90E09587848784EC90E0978786872D
:1010B00080EC90E0918B808B81EC90E0938B828B25
:1010C00082EC90E0958B848B86EC90E0978B868BFE
:1010D000118E128E138E148EEAE9F2E08DEC882EBA
:1010E0008CEC982E8CE4A82E8FE3B82E808291820F
:1010F000A282B3829AE0C92E97EDD92E93E2E92E0F
:101100009DE3F92EC482D582E682F7820AE017EDCC
:1011100023E23CE3008711872287338780E090E059
:10112000A0E8BFE384879587A687B78740E050E8AB
:1011300069E075E4408B518B628B738B40E050E02B
:101140006AE775E4448B558B668B778B412C512C69
:10115000CAEF6C2EC3E47C2E408E518E628E738E4D
:10116000412C512CD8E46D2ED2E47D2E448E558E28
:10117000668E778E412C512CCAE76C2EC4E47C2EEF
:1011800040A251A262A273A2C4E0D0E0D5A3C4A33E
:1011900016A217A20F2EFFE64F2EF2E15F2EF3E804
:1011A0006F2EFAE37F2EF02D40A651A662A673A6FD
:1011B00014A615A616A617A6EAEC4E2EE2E05E2EA1
:1011C000FCEC7F2EF20111927A94E9F710929603CB
:1011D000E5E0E09397038092980390929903A092A0
:1011E0009A03B0929B03C0929C03D0929D03E0921D
:1011F0009E03F0929F030093A0031093A1032093FA
:10120000A2033093A3038093A4039093A503A09318
:10121000A603B093A7031092A8031092A9031092FB
:10122000AA031092AB031092AC031092AD0310927C
:10123000AE031092AF031092B00329E02093B103E4
:1012400028E02093B20327E02093B3031092B40365
:101250001092B5031092B60321E02093B703D09308
:10126000B903C093B8034093BA035093BB03609390
:10127000BC037093BD031092BE031092BF03109283
:10128000C0031092C1031092C2031092C3031092C4
:10129000C4031092C5031092C6031092C7031092A4
:1012A000C8031092C9031092CA031092CB03109284
:1012B000CC031092CD031092CE031092CF03109264
:1012C000D0031092D1031092D2031092D303109244
:1012D000D4031092D503409106015091070160910B
:1012E0000801709109014093D6035093D70360938E
:1012F000D8037093D9031092DA031092DB03109293
:10130000DC031092DD031092DE031092DF031092D3
:10131000E0031092E1031092E2031092E3031092B3
:10132000E4031092E503E6EEF3E020E1EF01199209
:101330002A95E9F726E331E03093F7032093F6038B
:101340001092FB031092FC031092FD031092FE0317
:101350008093FF0390930004A0930104B0930204D0
:1013600010920304109204041092050410920604D3
:1013700010920704109208041092090410920A04B3
:1013800010920B0410920C0410920D0410920E0493
:1013900010920F0410921004109211041092120473
:1013A0001092130410921404109215041092160453
:1013B00010921704109218041092190410921A0433
:1013C00010921B0410921C0410921D0410921E0413
:1013D00010921F04109220041092210410922204F3
:1013E00010922304109224041092250410922604D3
:1013F0001092270410922804E9E2F4E084EBDF0164
:101400001D928A95E9F71092DD04DF91CF911F912B
:101410000F91FF90EF90DF90CF90BF90AF909F9093
:101420008F907F906F905F904F900895CF93DF9350
:10143000CDB7DEB769970FB6F894DEBF0FBECDBF4C
:10144000789484B5826084BD84B5816084BD85B59F
:10145000826085BD85B5816085BD80916E008160AB
:1014600080936E0010928100809181008260809351
:101470008100809181008160809381008091800053
:101480008160809380008091B10084608093B1007E
:101490008091B00081608093B00080917A00846078
:1014A00080937A0080917A00826080937A008091A4
:1014B0007A00816080937A0080917A0080688093BE
:1014C0007A001092C100E0910D02F0910E0282E0CC
:1014D0008083E0910902F0910A021082E0910B02F0
:1014E000F0910C0280E1808310921502E0911102CC
:1014F000F091120216E01083E0910F02F0911002B9
:10150000808180618083E0910F02F09110028081E0
:1015100088608083E0910F02F091100280818068E2
:101520008083E0910F02F091100280818F7D808393
:1015300089E08093B10388E08093B20387E08093D1
:10154000B30361E089E00E94C60261E08091B203CA
:101550000E94C60261E08091B3030E94C60260E06F
:101560008091B1030E94720260E08091B2030E94F8
:10157000720280E00E94A0028AE08093D6038BE092
:101580008093D7038CE08093D8031093D9031AED8E
:10159000E12E13E0F12E06ED13E0680162E0D801C0
:1015A0008D918D010E94C602F60180810E94490240
:1015B00021E0892B09F020E0D80113962C93139792
:1015C00017962C93E016F10641F785E08093F80317
:1015D00084E08093F90361E085E00E94C60260E048
:1015E0008091F9030E94C60221E02093FA038091C2
:1015F000A6029091A702A091A802B091A9024091E1
:10160000A2025091A3026091A4027091A502C09021
:101610009E02D0909F02E090A002F090A1028090E4
:101620009A0290909B02A0909C02B0909D028092A2
:10163000980390929903A0929A03B0929B03C09250
:101640009C03D0929D03E0929E03F0929F034093EF
:10165000A0035093A1036093A2037093A303BF77E9
:101660008093A4039093A503A093A603B093A7032C
:101670001092A8031092A9031092AA031092AB0330
:101680001092AC031092AD031092AE031092AF0310
:101690001092B00310920A0410920B0410920C04E2
:1016A00010920D0410920E0410920F041092100468
:1016B00010920904209396030E94FC058FB7F894BA
:1016C0006090F5017090F6018090F7019090F8011C
:1016D0006E867F86888A998A8FBF0E9402036A8BF2
:1016E0007B8B8C8B9D8B8DEF91E00E948503181670
:1016F00019060CF056C48DEF91E00E9463038D3003
:1017000091F3E091DD048A3009F039C4AE2FB0E0E6
:10171000A75DBB4F1C92EE2309F428C318861F82D5
:10172000AE01495F5F4F69E471E089E294E00E9495
:10173000D5188C018EEF92E001151105D9F06BE4FC
:1017400071E0C8010E94511E20910804211115C0AA
:10175000892BA9F060E571E0C8010E94511E892B18
:1017600099F06BE571E0C8010E94511E892B61F070
:101770008EEE92E00E94A004F9C2892B29F489EE32
:1017800092E00E949404F2C260E571E0C8010E94F8
:10179000511E892B19F40E94FC05E8C26BE571E02B
:1017A000C8010E94511E892B09F072C18F81988552
:1017B0009E838D8381E08987BE01675F7F4FCE0165
:1017C00005960E94440760939A0270939B0280934F
:1017D0009C0290939D02BE01675F7F4FCE010596EC
:1017E0000E94440760939E0270939F028093A00220
:1017F0009093A102BE01675F7F4FCE0105960E94C4
:1018000044076093A2027093A3028093A402909372
:10181000A502BE01675F7F4FCE0105960E94440777
:101820006093A6027093A7028093A8029093A902E6
:10183000BE01675F7F4FCE0105960E94440760930B
:10184000AA027093AB028093AC029093AD02BE01EA
:10185000675F7F4FCE0105960E9444076093AE02FA
:101860007093AF028093B0029093B102BE01675FA4
:101870007F4FCE0105960E9444076093B202709399
:10188000B3028093B4029093B502BE01675F7F4FAD
:10189000CE0105960E9444076093B6027093B7028A
:1018A0008093B8029093B902BE01675F7F4FCE016B
:1018B00005960E9444076093BA027093BB0280931E
:1018C000BC029093BD02BE01675F7F4FCE010596BB
:1018D0000E945B077093BF026093BE02BE01675F08
:1018E0007F4FCE0105960E945B0721E0672B682B96
:1018F000692B09F420E02093C002BE01675F7F4F8F
:10190000CE0105960E945B0721E0672B682B692BAF
:1019100009F420E02093C102BE01675F7F4FCE0132
:1019200005960E9444076093C2027093C30280939D
:10193000C4029093C502BE01675F7F4FCE0105963A
:101940000E9444076093C6027093C7028093C80246
:101950009093C9028985882309F497C08091A602D3
:101960009091A702A091A802B091A9024091A20271
:101970005091A3026091A4027091A50200919E0271
:1019800010919F022091A0023091A102C0909A0272
:10199000D0909B02E0909C02F0909D02C092980330
:1019A000D0929903E0929A03F0929B0300939C03D8
:1019B00010939D0320939E0330939F034093A003B5
:1019C0005093A1036093A2037093A303BF77809306
:1019D000A4039093A503A093A603B093A70310922A
:1019E000A8031092A9031092AA031092AB031092BD
:1019F000AC031092AD031092AE031092AF0310929D
:101A0000B003B090C0020091BE021091BF02C0901E
:101A1000AE02D090AF02E090B002F090B10220E0B0
:101A200030E040E85FE3C701B6010E94221D1816AE
:101A300034F0C12CD12CB0E8EB2EBFE3FB2EC092CA
:101A4000BA03D092BB03E092BC03F092BD03011530
:101A5000110511F401E010E01093B9030093B803ED
:101A6000B092B50381E080930804809196038130A1
:101A700039F4A2E07A2E7092960381E00E94A002CF
:101A80008EEC92E00E94940486CE8AED92E072CEB3
:101A900067E671E0C8010E94511E892BF1F58F8124
:101AA00098859C838B8380919603823099F511E011
:101AB0001987BE01675F7F4FCE0103960E945B07C7
:101AC000BE01675F7F4FCE0103960E945B072985A9
:101AD000222301F16B017C0121E0C21AD108E10847
:101AE000F1083CE0C316D104E104F10498F410922B
:101AF0000B0410920C0410920D0410920E0410921C
:101B00000F041092100460930A041093090483EBED
:101B100092E037CE8FEB92E02DCE63E771E0C80103
:101B20000E94511E892B09F0C7C08F8198859A8326
:101B3000898380919603823009F0BBC080910904AB
:101B4000882309F4B6C081E08987BE01675F7F4FB3
:101B5000CE0101960E945B076B017C01AE014F5FD5
:101B60005F4F69E471E090E080E00E94D5181C01AD
:101B7000BE01675F7F4FCE0101960E9444074B0173
:101B80005C01BE01675F7F4FCE0101960E94440752
:101B90002B013C01BE01675F7F4FCE0101960E9481
:101BA00044076A877B878C879D87BE01675F7F4F6D
:101BB000CE0101960E945B072985222309F479C092
:101BC0002114310409F475C041E0C41AD108E108B8
:101BD000F1085CE0C516D104E104F10408F069C025
:101BE00010910A04212F30E050E040E062177307A3
:101BF0008407950709F05DC06FE771E0C1010E949D
:101C0000511E892B99F581E18C9DF0018D9DF00D80
:101C10001124E656FD4F10AA81AA92AAA3AAB4AA3B
:101C200045AA56AA67AA70AE6A847B848C849D8478
:101C300061AE72AE83AE94AEFD96108211821282B6
:101C4000138280910B048F5F80930B04811758F0EF
:101C50001092090434E03093960380E691E00E94EC
:101C6000AC040E94FC0583E992E08BCD6CE871E046
:101C7000C1010E94511E892BE1F421E12C9DF0014C
:101C80002D9DF00D1124E656FD4F81E080AB81AA19
:101C900092AAA3AAB4AA15AA16AA17AA10AE11AEA0
:101CA00012AE13AE14AEFD964082518262827382F0
:101CB000C8CF8FE992E05ECD66E971E0C8010E946D
:101CC000511E892B09F055C080919603843021F470
:101CD00080910B04811103C085E892E04BCD45E073
:101CE0004093960310920C042FB7F8948091F5015D
:101CF0009091F601A091F701B091F8012FBF809368
:101D00000D0490930E04A0930F04B09310048091DF
:101D1000150490911604A0911704B09118048093B3
:101D2000110490931204A0931304B093140410921E
:101D3000A8031092A9031092AA031092AB03109269
:101D4000AC031092AD031092AE031092AF03109249
:101D5000B0038FE792E00E94940482E792E00E9431
:101D6000AC0461E085E692E00E94F9061092DD0481
:101D7000BACC6CE971E0C8010E94511E892B61F454
:101D800080919603843019F087E592E0F3CC0E94AD
:101D90007C068CE492E0F5CC67EA71E0C8010E9411
:101DA000511E892BC9F4809196039BEF980F9230B6
:101DB00018F08EE392E0DECC8093970357E05093C7
:101DC00096031092BE031092BF031092C0031092AC
:101DD000C10388E392E0D5CC6DEA71E0C8010E94AE
:101DE000511E892B71F480919603873019F08AE295
:101DF00092E0C0CC809197038093960383E292E0B7
:101E0000C0CC64EB71E0C8010E94511E892B61F4C3
:101E100080919603873019F085E192E0ABCC0E9467
:101E2000B80489E092E0ADCC60EC71E0C8010E949A
:101E3000511E892B69F4809196038450843018F0E8
:101E40008BEF91E097CC0E94D10485EF91E099CC83
:101E500066EC71E0C8010E94511E892B81F48091CB
:101E60009603823019F087EE91E084CC83E0809372
:101E7000960380E00E94A0028BED91E003CE62ED1C
:101E800071E0C8010E94511E892B81F48091960354
:101E9000833019F08DEC91E06DCC92E09093960335
:101EA00081E00E94A00282EC91E0ECCD6DED71E04A
:101EB000C8010E94511E892B09F040C080919603F1
:101EC000823019F084EB91E055CC6091030470915D
:101ED000040480910504909106040E946E1A2091DA
:101EE000C2023091C3024091C4025091C5020E94C7
:101EF000CD1A2091C6023091C7024091C80250917C
:101F0000C9020E94151C2091C102211190586093B2
:101F1000190470931A0480931B0490931C0410926C
:101F2000150410921604109217041092180483E5F9
:101F300091E00E94AC048AEA91E023CC67EE71E064
:101F4000C8010E94511E892BB9F48091960398EF25
:101F5000980F933018F08CE991E00CCC893039F46B
:101F60008091DD03882319F089E891E003CC0E9479
:101F7000B7068DE791E005CC8DE691E0FBCBE33B26
:101F800048F491E09E0F9093DD04F0E0E75DFB4F95
:101F90008083A9CB1092DD048EE093E00E94A00420
:101FA000A2CB8091F9030E944902892B09F059C004
:101FB0008091F9030E944902892B19F00E940203C3
:101FC000F7CFCFB6F8946091F8038091F9030E949F
:101FD0005504F82E6091F8038091F9030E9455048E
:101FE000D82E6091F8038091F9030E945504E82EE1
:101FF00010E000E08091FA038017110671F068F09C
:1020000061E08091F8030E94720260E08091F80321
:102010000E9472020F5F1F4FEDCFCFBE8D2D90E05B
:10202000B0E0A0E0BA2FA92F982F8827AF298E29DA
:10203000FF0CFF084F2D50E070E060E0742F662722
:1020400055274427842B952BA62BB72B809303046D
:1020500090930404A0930504B093060481E0809358
:1020600007046AEAE62E62E0F62E7AE9C72E72E0ED
:10207000D72E06ED13E0BB24B394D8018D918D01CA
:102080000E9449029C0191E02115310509F090E080
:10209000F8018781981709F4A0C09783F601E45BE3
:1020A000FE4F6E847F8488889988608271828282E4
:1020B000938224E0C20ED11CEC14FD04F1F6609171
:1020C00003047091040480910504909106040E9419
:1020D0006E1A2091C2023091C3024091C402509105
:1020E000C5020E94CD1A2091C6023091C7024091CC
:1020F000C8025091C9020E94151C6B017C0180919D
:10210000C102882321F0F7FAF094F7F8F0942091B7
:10211000190430911A0440911B0450911C04C7010A
:10212000B6010E94141C60931504709316048093EA
:1021300017049093180480919603893009F072C0B7
:102140008091E4031092E403882331F08091DD0351
:10215000811106C00E94B7068091DD038823B1F08B
:1021600080919603893091F089E08093960380E016
:102170000E94A0021092BE031092BF031092C003EF
:102180001092C10380E391E00E94AC0480911D0491
:1021900090911E04A0911F04B09120046E847F844E
:1021A00088889988681A790A8A0A9B0AD401C30127
:1021B0000A97A105B10508F46BC18091080481114B
:1021C000FCC080E00E94A0021092BE031092BF03E8
:1021D0001092C0031092C1034FC1D8018381981798
:1021E00009F467CFF601E45BFE4F408151816281C3
:1021F00073816E847F8488889988641A750A860A38
:10220000970AB401A301493151056105710508F42C
:1022100050CF13969C931397232B09F04ACF1B960C
:10222000BC9247CFEEEFE80FE93008F095CFF0E031
:10223000E45EFE4E0C940E1C251141114F11AD11A0
:10224000AD11C111D511AC10D5118091E4031092DC
:10225000E403882309F480CFC0921904D0921A04B1
:10226000E0921B04F0921C041092150410921604C4
:10227000109217041092180483E591E00E94AC04B8
:102280006BCF8091E4031092E403882309F464CFB8
:1022900082E08093960381E00E94A0025DCF80914E
:1022A000E2031092E203882309F444C085E080939E
:1022B000960310920C042FB7F8948091F501909139
:1022C000F601A091F701B091F8012FBF80930D04A2
:1022D00090930E04A0930F04B09310048091150402
:1022E00090911604A0911704B091180480931104E2
:1022F00090931204A0931304B09314041092A803B3
:102300001092A9031092AA031092AB031092AC038F
:102310001092AD031092AE031092AF031092B0036F
:1023200086E491E00E94AC0461E089E391E00E94C0
:10233000F90612CF8091E3031092E303882319F08A
:102340000E947C0609CF8091E4031092E403882365
:1023500009F402CF0E94D104FFCE9091E3031092C2
:10236000E303992381F38093970387E08093960397
:102370001092BE031092BF031092C0031092C103CB
:10238000EBCE8091E2031092E203882329F0809142
:10239000970380939603E0CE8091E3031092E303CA
:1023A000882389F20E94B804D7CE8091E40310926A
:1023B000E403882309F4D0CECDCE6091150470914A
:1023C000160480911704909118049F772091BA0207
:1023D0003091BB024091BC025091BD020E94221D6F
:1023E0001816C4F4809196038950823098F08AE0E0
:1023F000809396031092BE031092BF031092C00305
:102400001092C1038AE191E00E94140487E291E0F6
:102410000E94860480919603833009F4D2CE8930DD
:1024200009F4CFCE81E00E94A00280919603823011
:1024300009F04DC18091DA036091DB036195811150
:1024400061E0062E000C770B880B990B0E946E1A28
:102450009B01AC016091B2027091B3028091B40211
:102460009091B5020E94CD1A6093BE037093BF0392
:102470008093C0039093C1036E847F848888998879
:1024800060921D0470921E0480921F04909220049A
:102490008091CA039091CB03A091CC03B091CD035E
:1024A0006A887B888C889D880097A105B10509F012
:1024B000F3C36092CA037092CB038092CC039092D4
:1024C000CD038091B403882399F0C090C203D090CB
:1024D000C303E090C403F090C503C701B6019F7722
:1024E00020E030E040E05FE30E94671A87FF46C4C7
:1024F00060E08091B1030E9472021092B603809155
:10250000210490912204A0912304B09124046E84AC
:102510007F8488889988681A790A8A0A9B0AD40174
:10252000C301C297A105B10508F4C1C0809125047B
:1025300090912604A0912704B09128040196A11D32
:10254000B11D8093250490932604A0932704B09393
:10255000280487E091E00E941404609125047091A2
:10256000260480912704909128044AE00E94E00408
:102570008CE20E942F044AE06E857F8588899989C4
:102580000E94E0048CE20E942F04E09196038BED00
:1025900093E0EB3038F4F0E0EE0FFF1FE65FFE4F04
:1025A000808191810E9414048CE20E942F04C090CB
:1025B0000304D0900404E0900504F09006044AE07F
:1025C000C701B601F7FE0BC08DE20E942F046627FB
:1025D0007727CB016C197D098E099F094AE00E947B
:1025E000E0048CE20E942F0460911504709116049F
:1025F000809117049091180444E00E9424058CE215
:102600000E942F04609111047091120480911304B0
:102610009091140444E00E9424058CE20E942F044F
:102620006091C2037091C3038091C4039091C5036C
:1026300044E00E9424058CE20E942F046091C603AE
:102640007091C7038091C8039091C9030E946E1ACC
:102650006B017C016091B8037091B90390E080E058
:102660000E946C1A29E939E040E755E40E94CD1A2E
:1026700020E030E040E85EE30E94CD1A9B01AC010F
:10268000C701B6010E94811C45E00E9424058AE32F
:1026900091E00E9479046E847F8488889988609292
:1026A000210470922204809223049092240480E0FA
:1026B00090E0892B11F40C945E0B0E949103882307
:1026C00011F40C945E0B0E9400000C945E0B99EFC9
:1026D000980F923008F478CD8A3009F475CD8430A3
:1026E00009F472CD813009F46FCD853009F00BC249
:1026F00000910C0480910B04081708F4F9C00E94A3
:10270000B80420911504309116044091170450919B
:102710001804609111047091120480911304909137
:1027200014040E94141C6B017C016090AA0270903A
:10273000AB028090AC029090AD026A867B868C865C
:102740009D869F772091A4033091A5034091A60315
:102750005091A7030E94671A18161CF0C12CD12CA7
:1027600076018091B003812C912C54018823A1F033
:102770002091AC033091AD034091AE035091AF0373
:10278000C701B6010E94141C2AE037ED43E25CE366
:102790000E94811C4B015C012AE037ED43E25CE3BF
:1027A000C701B6010E94CD1A2091A8033091A90358
:1027B0004091AA035091AB030E94151C6E8B7F8B36
:1027C000888F998F209198033091990340919A03B3
:1027D00050919B03C701B6010E94CD1A2B013C0109
:1027E00020919C0330919D0340919E0350919F0343
:1027F0006E897F89888D998D0E94CD1A9B01AC01CD
:10280000C301B2010E94151C2B013C012091A003C1
:102810003091A1034091A2035091A303C501B401DB
:102820000E94CD1A9B01AC01C301B2010E94151C8C
:10283000162F072F782E692E8A849B84AC84BD8442
:10284000B7FAB094B7F8B094A50194010E94671A42
:1028500087FD7BC3212F302F472D562D6A857B8521
:102860008C859D850E94671A87FF59C38A849B8443
:10287000AC84BD8420E030E0A901C701B6010E940C
:10288000671A87FD15C0212F302F472D562DC50102
:10289000B4010E94221D18160CF045C320E030E060
:1028A000A901C701B6010E94221D18160CF03BC3F6
:1028B0002E893F89488D598D2093A8033093A90311
:1028C0004093AA035093AB03C092AC03D092AD03E4
:1028D000E092AE03F092AF0381E08093B003809268
:1028E000BE039092BF03A092C003B092C103C4CDB7
:1028F00010E080910D0490910E04A0910F04B0910E
:1029000010046E847F8488889988681A790A8A0AF4
:102910009B0AC401B3010E946C1A20E030E04AE730
:1029200054E40E94811C6A877B878C879D8781E1A4
:10293000809FF001819FF00D1124E656FD4FC1A844
:10294000D2A8E3A8F4A880A98111C0C060901104A6
:102950007090120480901304909014046E8A7F8A01
:10296000888E998EA4019301C701B6010E94141CA0
:102970002B013C0181E1809FF001819FF00D11242A
:10298000E656FD4F85A896A8A7A8B0AC2AE037ED7B
:1029900043E25CE3C501B4010E94221D181644F015
:1029A0005AE0852E57ED952E53E2A52E5CE3B52E09
:1029B0002AE037ED43E25CE3C501B4010E94CD1A81
:1029C0004B015C01A30192015F770E94221D87FDEC
:1029D0006AC0C0921104D0921204E0921304F092E3
:1029E0001404A70196016091110470911204809162
:1029F0001304909114040E94141C4B015C01E89490
:102A0000B7F8A701960160911504709116048091A2
:102A10001704909118040E94141C9B01AC015F776D
:102A20002E8B3F8B488F598FC090A602D090A70263
:102A3000E090A802F090A90220E030E040E85FE3D7
:102A4000C701B6010E94221D181634F0C12CD12CEA
:102A500040E8E42E4FE3F42E81E1809FF001819F56
:102A6000F00D1124E656FD4F41AC52AC63AC74AC92
:102A700020E030E0A901C301B2010E94221D181616
:102A80000CF036C2A30192016A857B858C859D85F9
:102A90000E94221D87FD2CC26E857F8588899989B9
:102AA0000E9416072ECEA501940177FA57F96E8978
:102AB0007F89888D998D0E94151C609311047093F5
:102AC000120480931304909314048BCFC0921104CA
:102AD000D0921204E0921304F092140481E1809FDA
:102AE000F001819FF00D1124E952FD4F20813181C9
:102AF000428153816A857B858C859D850E94221D3C
:102B000087FDFFCDC9CF863009F0FBCDC090B6025E
:102B1000D090B702E090B802F090B9022AE037ED09
:102B200043E25CE3C701B6010E94221D181644F07F
:102B30003AE0C32E37EDD32E33E2E32E3CE3F32EFF
:102B40002AE037ED43E25CE3C701B6010E94CD1AEB
:102B50006B017C018090110490901204A0901304EA
:102B6000B0901404A50194015F770E94221D87FD97
:102B700082C0109211041092120410921304109249
:102B8000140440901104509012046090130470904B
:102B90001404E89477F8C0901504D0901604E090DF
:102BA0001704F0901804E894F7F88090A60290902B
:102BB000A702A090A802B090A90220E030E040EC6B
:102BC0005FE3C501B4010E94221D181634F0812C68
:102BD000912C20ECA22E2FE3B22E2DEC3CEC4CE4F9
:102BE0005DE3C301B2010E94671A18160CF489CD87
:102BF000A5019401C701B6010E94671A18160CF4CA
:102C000080CD8CE091E00E94AC0410920A041092F6
:102C10000B0410920C0410920D0410920E041092EA
:102C20000F041092100410920904109219041092CB
:102C30001A0410921B0410921C041092110410929A
:102C4000120410921304109214041092A80310920C
:102C5000A9031092AA031092AB031092AC03109236
:102C6000AD031092AE031092AF031092B00382E056
:102C70008093960346CDA7019601B7FA57F9C5018F
:102C8000B4010E94141C6093110470931204809389
:102C900013049093140475CF681A790A8A0A9B0A60
:102CA000C401B301683E23E072078105910508F471
:102CB00008CC6A887B888C889D886092CA03709251
:102CC000CB038092CC039092CD030E946C1A20E03B
:102CD00034E244E759E40E94811C2091BA03309108
:102CE000BB034091BC035091BD030E94CD1A6B0100
:102CF0007C016090BE037090BF038090C0039090F1
:102D0000C1036A867B868C869D868090C2039090E4
:102D1000C303A090C403B090C503A50194016A85C4
:102D20007B858C859D850E94141C2B013C01AC0188
:102D30009B015F77C701B6010E94221D87FD0DC070
:102D40006A847B848C849D846092C2037092C303E6
:102D50008092C4039092C503B4CBA701960177FA81
:102D600057F9C501B4010E94151C6093C20370930A
:102D7000C3038093C4039093C503A3CB8091B60390
:102D8000882309F46EC08091D2039091D303A0915F
:102D9000D403B091D5036A887B888C889D88681A93
:102DA000790A8A0A9B0AD401C301B7FDA8CB60E067
:102DB0008091B1030E9472021092B6038091C60303
:102DC0009091C703A091C803B091C9032091B703A4
:102DD00041E050E060E070E0211103C04FEF5FEF91
:102DE000BA01840F951FA61FB71F8093C603909347
:102DF000C703A093C803B093C903C090C203D09087
:102E0000C303E090C403F090C503E894F7F820E012
:102E100030E040E05FE3C701B6010E94221D1816B2
:102E20002CF0C12CD12CE12C9FE3F92EA7019601A7
:102E300060E074E284E799E40E94811C0E94F31C24
:102E40006A887B888C889D88660D771D881D991DF2
:102E50006093CE037093CF038093D0039093D103FC
:102E60004ECB8091CE039091CF03A091D003B0912F
:102E7000D1030097A105B10561F06A887B888C8831
:102E80009D88681A790A8A0A9B0AD401C301B7FD92
:102E900036CB11E020E030E0A901C701B6010E9465
:102EA000221D87FD10E01093B7038091B50388239E
:102EB00011F081E01827612F8091B2030E94720205
:102EC00061E08091B1030E94720281E08093B603B9
:102ED0008A899B89AC89BD890496A11DB11D809307
:102EE000D2039093D303A093D403B093D50307CB1D
:102EF0002DEC3CEC4CE45DE3C501B4010E94671A83
:102F000018160CF4FECBA70196016E897F89888D77
:102F1000998D0E94671A18160CF4F3CBBDCD812E43
:102F2000902EA72CB62CA5019401612F702F872D10
:102F3000962D0E94141C9F772FE632E143E85AE356
:102F40000E94671A87FDB4CCBFCCA5019401612F04
:102F5000702F872D962D0E94221D18160CF09ECCE6
:102F600089CCB0E0A0E0E7EBF7E10C94C91B5C0171
:102F70006B017A016115710519F0FB019183808362
:102F8000E114F10451F0C7010297839730F040E05B
:102F900030E020E090E072C05E01E5012196F5018D
:102FA0001081812F90E00E94CC18892BA9F71D3247
:102FB00001F52196F501118101E0E114F10409F414
:102FC000DAC0F0E1EF16F10409F082C0103359F4D1
:102FD00088818F7D883509F076C01981229602603C
:102FE000F0E1EF2EF12C812C912CA12C88E0B82E51
:102FF0008CC01B3221F4E5012296F501118100E01D
:10300000DCCFEAE0EE16F10409F4BBC0F0E1EF1604
:10301000F10409F06DC0E7CF78E0E72EF12C812CA8
:10302000912CA12C60E1B62E70C03FE9310F3A31EE
:1030300028F439EA332E80C021E09AC0302F317055
:10304000C114D10431F0222309F12197F601D18373
:10305000C08327FF21C060E070E080E090E831117C
:1030600004C06FEF7FEF8FEF9FE722E230E03093F5
:10307000DF042093DE04462F372F282F642F732F71
:10308000822FCDB7DEB7E1E10C94E51B01FF04C050
:103090002297F601D183C083332341F09095809528
:1030A000709561957F4F8F4F9F4FE5CF97FFE3CF8F
:1030B00082E290E09093DF048093DE046FEF7FEF75
:1030C0008FEF9FE7D8CF10E3E114F10409F4A4CF08
:1030D00028E0E216F10409F4A2CF0CF092CF812C83
:1030E000912CA12CE0E4BE2E82E0E816F10469F0F8
:1030F00060E070E080E090E897010F2C000C440B3A
:10310000550B0E949B1B49015A0120E060E070E0D2
:10311000CB0127010F2C000C66087708FE0150ED4B
:10312000352E310E39E0331540F43FEB310F3A3193
:1031300008F07BCF49EC342E310E3E141F040CF006
:103140007DCF27FD15C086169706A806B90678F02C
:10315000A30192010E948B1B630D711D811D911DA6
:1031600061307105810520E8920708F465CF2FEFE3
:1031700021961081D3CF103309F42ACF2AE0E22E12
:10318000F12C9CEC892E982CA82C9CE0B92EBDCF5C
:10319000662777270C94FC1891110C944C1A8032F6
:1031A00019F089508550C8F70895FA01A191B081AE
:1031B000009719F41097E1F0CD01DC01CD010D90DD
:1031C000002011F4C00113C0FB012191222319F04A
:1031D0002015D9F7F3CFFB012191201519F41E9288
:1031E000119606C02223C1F70D900020A1F7D0014F
:1031F000FA01A193B0830895B0E0A0E0E2E0F9E124
:103200000C94CE1B5C017B016115710519F0DB018B
:103210008D939C9385010F5F1F4FF501D0818D2FFA
:1032200090E00E94CC186C01892BB9F5DD32B9F51C
:103230000F5F1F4FD5011196DC91C1E05801F1E0FD
:10324000AF1AB10843E050E060E770E0C5010E94AA
:103250004F1A892B69F5680182E0C80ED11C45E040
:1032600050E06BE670E0C6010E944F1A892B21F4F2
:10327000680197E0C90ED11CE114F10419F0D701DF
:10328000CD92DC9260E070E080E89FEFC111FFC05A
:1032900060E070E080E89FE7FAC05801BBCFDB3206
:1032A00029F485010E5F1F4FF501D181C0E0C6CF23
:1032B00043E050E068E670E0C5010E944F1A892B98
:1032C000E9F0F80110E000E020E030E0A9015F0142
:1032D000B0ED8B2E8D0E89E08815C8F19C2E689478
:1032E00091F88C2F8870C2FF16C0811102C00F5F49
:1032F0001F4F3196D501DC91C92DE9CFE114F104BE
:1033000029F00E5F1F4FF7011183008360E070E02A
:1033100080EC9FE7BCC0882311F001501109A5E0A3
:10332000B0E00E94BD1B9B01AC01220F331F441F64
:10333000551F280D311D411D511D283999E93907A7
:10334000490799E15907A8F2C6609C2ED2CFAEEF8B
:103350008A1206C0C3FD3CC09C2E689493F8C9CF66
:10336000DF7DD534A9F580818D3239F4C061DF016C
:103370001296818162E070E006C0DF018B32C1F3FA
:10338000119661E070E080535D01A61AB70A8A3099
:10339000F8F4E0E8CE16ECE0DE065CF4B601660F69
:1033A000771F660F771FC60ED71ECC0CDD1CC80E0C
:1033B000D11C5D01FFEFAF1ABF0A8C9180538A3098
:1033C000A8F1C4FF03C0D194C194D1080C0D1D1DF8
:1033D000C1FF09C0E114F10431F081E0A81AB1087D
:1033E000D701AD92BC92CA01B9010E946C1AC37098
:1033F000C33009F490584B015C0120E030E0A90192
:103400000E94671A882309F440C0CFE9D0E017FF73
:1034100005C0119501951109C7E8D0E06E01B8E12A
:10342000CB1AD10880E2E82EF12C0FC0D501B1CF24
:10343000FE0125913591459154910E191F09C50141
:10344000B4010E94CD1A4B015C01D501C4010E15D7
:103450001F0574F72497F594E794CC16DD06A9F7B9
:103460008A2F880F8B2F881F8F3F49F020E030E094
:10347000A901C501B4010E94671A811106C082E248
:1034800090E09093DF048093DE04C501B401CDB7D2
:10349000DEB7ECE00C94EA1B992788270895FB011E
:1034A000DC014150504088F08D9181341CF08B3507
:1034B0000CF4805E659161341CF06B350CF4605E39
:1034C000861B611171F3990B0895881BFCCF0E9434
:1034D000A91A08F481E00895E89409C097FB3EF426
:1034E00090958095709561957F4F8F4F9F4F992351
:1034F000A9F0F92F96E9BB279395F69587957795CF
:103500006795B795F111F8CFFAF4BB0F11F460FF8E
:103510001BC06F5F7F4F8F4F9F4F16C0882311F0E6
:1035200096E911C0772321F09EE8872F762F05C0FA
:10353000662371F096E8862F70E060E02AF09A9595
:10354000660F771F881FDAF7880F9695879597F98A
:103550000895990F0008550FAA0BE0E8FEEF161624
:103560001706E807F907C0F012161306E407F50777
:1035700098F0621B730B840B950B39F40A2661F0EB
:10358000232B242B252B21F408950A2609F4A1408E
:10359000A6958FEF811D811D08950E94E01A0C945D
:1035A000511B0E94431B38F00E944A1B20F09523B8
:1035B00011F00C943A1B0C94401B11240C94851BA5
:1035C0000E94621B70F3959FC1F3950F50E0551F49
:1035D000629FF001729FBB27F00DB11D639FAA2768
:1035E000F00DB11DAA1F649F6627B00DA11D661FB7
:1035F000829F2227B00DA11D621F739FB00DA11DD8
:10360000621F839FA00D611D221F749F3327A00D91
:10361000611D231F849F600D211D822F762F6A2F2D
:1036200011249F5750409AF0F1F088234AF0EE0F92
:10363000FF1FBB1F661F771F881F91505040A9F7BF
:103640009E3F510580F00C943A1B0C94851B5F3F04
:10365000E4F3983ED4F3869577956795B795F795FB
:10366000E7959F5FC1F7FE2B880F911D9695879573
:1036700097F9089597F99F6780E870E060E00895F2
:103680009FEF80EC089500240A941616170618067A
:103690000906089500240A94121613061406050656
:1036A0000895092E0394000C11F4882352F0BB0FE7
:1036B00040F4BF2B11F460FF04C06F5F7F4F8F4F4A
:1036C0009F4F089557FD9058440F551F59F05F3F85
:1036D00071F04795880F97FB991F61F09F3F79F034
:1036E00087950895121613061406551FF2CF4695B6
:1036F000F1DF08C0161617061806991FF1CF869538
:103700007105610508940895E894BB27662777271B
:10371000CB0197F90895DB018F939F930E94BD1B06
:10372000BF91AF91A29F800D911DA39F900DB29F5D
:10373000900D11240895A1E21A2EAA1BBB1BFD01B6
:103740000DC0AA1FBB1FEE1FFF1FA217B307E40780
:10375000F50720F0A21BB30BE40BF50B661F771FD8
:10376000881F991F1A9469F76095709580959095B8
:103770009B01AC01BD01CF0108950E94FF1BA59FD5
:10378000900DB49F900DA49F800D911D112408955C
:103790002F923F924F925F926F927F928F929F9261
:1037A000AF92BF92CF92DF92EF92FF920F931F934F
:1037B000CF93DF93CDB7DEB7CA1BDB0B0FB6F89400
:1037C000DEBF0FBECDBF09942A88398848885F8440
:1037D0006E847D848C849B84AA84B984C884DF80B1
:1037E000EE80FD800C811B81AA81B981CE0FD11D95
:1037F0000FB6F894DEBF0FBECDBFED010895A29FB6
:10380000B001B39FC001A39F700D811D1124911DB4
:10381000B29F700D811D1124911D0895EE0FFF1FA1
:103820000590F491E02D09945058BB27AA270E94D7
:103830002C1C0C94511B0E94431B38F00E944A1B05
:1038400020F039F49F3F19F426F40C94401B0EF439
:10385000E095E7FB0C943A1BE92F0E94621B58F39A
:10386000BA17620773078407950720F079F4A6F565
:103870000C94841B0EF4E0950B2EBA2FA02D0B0197
:10388000B90190010C01CA01A0011124FF27591BA5
:1038900099F0593F50F4503E68F11A16F040A22FAB
:1038A000232F342F4427585FF3CF4695379527951C
:1038B000A795F0405395C9F77EF41F16BA0B620B1B
:1038C000730B840BBAF09150A1F0FF0FBB1F661F62
:1038D000771F881FC2F70EC0BA0F621F731F841FA5
:1038E00048F4879577956795B795F7959E3F08F0CB
:1038F000B0CF9395880F08F09927EE0F979587958D
:1039000008950E94951C0C94511B0E944A1B58F06C
:103910000E94431B40F029F45F3F29F00C943A1BAE
:1039200051110C94851B0C94401B0E94621B68F380
:103930009923B1F3552391F3951B550BBB27AA2768
:1039400062177307840738F09F5F5F4F220F331FA2
:10395000441FAA1FA9F335D00E2E3AF0E0E832D06A
:1039600091505040E695001CCAF72BD0FE2F29D06D
:10397000660F771F881FBB1F261737074807AB073F
:10398000B0E809F0BB0B802DBF01FF2793585F4FB4
:103990003AF09E3F510578F00C943A1B0C94851B2D
:1039A0005F3FE4F3983ED4F3869577956795B79596
:1039B000F7959F5FC9F7880F911D9695879597F9A1
:1039C0000895E1E0660F771F881FBB1F621773071A
:1039D0008407BA0720F0621B730B840BBA0BEE1F2F
:1039E00088F7E09508950E946A1B88F09F5798F029
:1039F000B92F9927B751B0F0E1F0660F771F881FF4
:103A0000991F1AF0BA95C9F714C0B13091F00E940D
:103A1000841BB1E008950C94841B672F782F8827AE
:103A2000B85F39F0B93FCCF3869577956795B39534
:103A3000D9F73EF490958095709561957F4F8F4FA3
:103A40009F4F08950E94A91A08F48FEF08950E94CD
:103A5000A91A880B990B08950F931F93CF93DF93A7
:103A60008230910510F482E090E0E091E204F09160
:103A7000E30430E020E0B0E0A0E0309799F42115B5
:103A8000310509F44AC0281B390B24303105D8F51B
:103A90008A819B816115710589F1FB019383828382
:103AA000FE0111C0408151810281138148175907DD
:103AB000E0F04817590799F4109761F012960C93AB
:103AC000129713961C933296CF01DF91CF911F91DD
:103AD0000F9108950093E2041093E304F4CF2115AD
:103AE000310551F04217530738F0A901DB019A0163
:103AF000BD01DF01F801C1CFEF01F9CF9093E304DD
:103B00008093E204CDCFFE01E20FF31F81939193E6
:103B10002250310939832883D7CF2091E004309196
:103B2000E104232B41F420910201309103013093F1
:103B3000E1042093E004209100013091010121155E
:103B4000310541F42DB73EB7409104015091050174
:103B5000241B350BE091E004F091E104E217F30738
:103B6000A0F42E1B3F0B2817390778F0AC014E5FED
:103B70005F4F2417350748F04E0F5F1F5093E10445
:103B80004093E004819391939FCFF0E0E0E09CCFDD
:103B9000CF93DF930097E9F0FC01329713821282F2
:103BA000A091E204B091E304ED0130E020E0109731
:103BB000A1F420813181820F931F2091E004309184
:103BC000E1042817390709F061C0F093E104E0939C
:103BD000E004DF91CF910895EA01CE17DF07E8F501
:103BE0004A815B819E0141155105B1F7E901FB83D3
:103BF000EA8349915991C40FD51FEC17FD0761F471
:103C0000808191810296840F951FE90199838883B1
:103C1000828193819B838A83F0E0E0E012968D910C
:103C20009C9113970097B9F52D913C911197CD0177
:103C30000296820F931F2091E0043091E10428172F
:103C4000390739F6309751F51092E3041092E204E7
:103C5000B093E104A093E004BCCFD383C28340813E
:103C60005181840F951FC817D90761F44E5F5F4FCC
:103C700088819981480F591F518340838A819B8194
:103C8000938382832115310509F0B0CFF093E304CB
:103C9000E093E2049ECFFD01DC01C0CF13821282CB
:103CA000D7CFFB01DC018D91019080190110D9F370
:083CB000990B0895F894FFCF71
:103CB8000000E40480000A0B0C060201EC00E70097
:103CC800E100DB00D300C100BA00B200A900A300E4
:103CD80000000000C703270354033404850363036B
:103CE80077030000000054048C070D0A006E616E13
:103CF80000696E66006F7666002C0050494E4700DA
:103D08004745545F535441545553004C4F41445F09
:103D1800434F4E464947004C4F41445F4D45544838
:103D28004F44004D4554484F445F5354455000524A
:103D3800414D505F544F5F4C4F414400484F4C44F5
:103D48005F4C4F41440053544152540043414E4349
:103D5800454C5F41524D0050415553450052455323
:103D6800554D450052455455524E5F5A45524F00E5
:103D780041424F525400454E5445525F53455455A5
:103D88005000455849545F5345545550005A4552C0
:103D98004F5F4C4F41440052455345545F4641558F
:043DA8004C54000077
:00000001FF
